{
  "contractName": "VerifyHash",
  "abi": [
    {
      "inputs": [],
      "payable": false,
      "stateMutability": "nonpayable",
      "type": "constructor"
    },
    {
      "anonymous": false,
      "inputs": [
        {
          "indexed": true,
          "internalType": "address",
          "name": "key",
          "type": "address"
        },
        {
          "indexed": true,
          "internalType": "bytes32",
          "name": "digest",
          "type": "bytes32"
        },
        {
          "indexed": false,
          "internalType": "uint8",
          "name": "hashFunction",
          "type": "uint8"
        },
        {
          "indexed": false,
          "internalType": "uint8",
          "name": "size",
          "type": "uint8"
        },
        {
          "indexed": false,
          "internalType": "uint256",
          "name": "entryCount",
          "type": "uint256"
        }
      ],
      "name": "EntrySet",
      "type": "event"
    },
    {
      "constant": false,
      "inputs": [],
      "name": "toggleContractActive",
      "outputs": [],
      "payable": false,
      "stateMutability": "nonpayable",
      "type": "function"
    },
    {
      "constant": false,
      "inputs": [
        {
          "internalType": "bytes32",
          "name": "_digest",
          "type": "bytes32"
        },
        {
          "internalType": "uint8",
          "name": "_hashFunction",
          "type": "uint8"
        },
        {
          "internalType": "uint8",
          "name": "_size",
          "type": "uint8"
        }
      ],
      "name": "setEntry",
      "outputs": [],
      "payable": false,
      "stateMutability": "nonpayable",
      "type": "function"
    },
    {
      "constant": true,
      "inputs": [
        {
          "internalType": "address",
          "name": "_address",
          "type": "address"
        },
        {
          "internalType": "uint256",
          "name": "cursor",
          "type": "uint256"
        },
        {
          "internalType": "uint256",
          "name": "howMany",
          "type": "uint256"
        }
      ],
      "name": "getEntries",
      "outputs": [
        {
          "internalType": "bytes32[]",
          "name": "",
          "type": "bytes32[]"
        },
        {
          "internalType": "uint8[]",
          "name": "",
          "type": "uint8[]"
        },
        {
          "internalType": "uint8[]",
          "name": "",
          "type": "uint8[]"
        },
        {
          "internalType": "uint256[]",
          "name": "",
          "type": "uint256[]"
        },
        {
          "internalType": "uint256",
          "name": "newCursor",
          "type": "uint256"
        }
      ],
      "payable": false,
      "stateMutability": "view",
      "type": "function"
    },
    {
      "constant": true,
      "inputs": [
        {
          "internalType": "address",
          "name": "_address",
          "type": "address"
        }
      ],
      "name": "getEntriesLength",
      "outputs": [
        {
          "internalType": "uint256",
          "name": "length",
          "type": "uint256"
        }
      ],
      "payable": false,
      "stateMutability": "view",
      "type": "function"
    },
    {
      "constant": true,
      "inputs": [
        {
          "internalType": "bytes32",
          "name": "_digest",
          "type": "bytes32"
        }
      ],
      "name": "getEntry",
      "outputs": [
        {
          "internalType": "bytes32",
          "name": "digest",
          "type": "bytes32"
        },
        {
          "internalType": "uint8",
          "name": "hashfunction",
          "type": "uint8"
        },
        {
          "internalType": "uint8",
          "name": "size",
          "type": "uint8"
        },
        {
          "internalType": "uint256",
          "name": "creation_date",
          "type": "uint256"
        }
      ],
      "payable": false,
      "stateMutability": "view",
      "type": "function"
    }
  ],
  "bytecode": "0x608060405260008060006101000a81548160ff02191690831515021790555034801561002a57600080fd5b5033600060016101000a81548173ffffffffffffffffffffffffffffffffffffffff021916908373ffffffffffffffffffffffffffffffffffffffff160217905550610ba28061007b6000396000f3fe608060405234801561001057600080fd5b50600436106100575760003560e01c80631385d24c1461005c5780634aa31d1a146100665780636dced155146100ae5780639a5e4eb414610106578063cf1ce44e14610169575b600080fd5b6100646102f5565b005b6100ac6004803603606081101561007c57600080fd5b8101908080359060200190929190803560ff169060200190929190803560ff1690602001909291905050506103e2565b005b6100f0600480360360208110156100c457600080fd5b81019080803573ffffffffffffffffffffffffffffffffffffffff16906020019092919050505061084c565b6040518082815260200191505060405180910390f35b6101326004803603602081101561011c57600080fd5b8101908080359060200190929190505050610898565b604051808581526020018460ff1660ff1681526020018360ff1660ff16815260200182815260200194505050505060405180910390f35b6101bf6004803603606081101561017f57600080fd5b81019080803573ffffffffffffffffffffffffffffffffffffffff16906020019092919080359060200190929190803590602001909291905050506108f3565b604051808060200180602001806020018060200186815260200185810385528a818151815260200191508051906020019060200280838360005b838110156102145780820151818401526020810190506101f9565b50505050905001858103845289818151815260200191508051906020019060200280838360005b8381101561025657808201518184015260208101905061023b565b50505050905001858103835288818151815260200191508051906020019060200280838360005b8381101561029857808201518184015260208101905061027d565b50505050905001858103825287818151815260200191508051906020019060200280838360005b838110156102da5780820151818401526020810190506102bf565b50505050905001995050505050505050505060405180910390f35b600060019054906101000a900473ffffffffffffffffffffffffffffffffffffffff1673ffffffffffffffffffffffffffffffffffffffff163373ffffffffffffffffffffffffffffffffffffffff16146103b8576040517f08c379a000000000000000000000000000000000000000000000000000000000815260040180806020018281038252601e8152602001807f596f7520617265206e6f742074686520636f6e7472616374206f776e6572000081525060200191505060405180910390fd5b6000809054906101000a900460ff16156000806101000a81548160ff021916908315150217905550565b6000809054906101000a900460ff16610847576103fd610b2b565b600260008581526020019081526020016000206040518060c0016040529081600082015481526020016001820160009054906101000a900460ff1660ff1660ff1681526020016001820160019054906101000a900460ff1660ff1660ff16815260200160028201548152602001600382015481526020016004820160009054906101000a900460ff1660ff1660ff1681525050905060018160a0015160ff161415610510576040517f08c379a00000000000000000000000000000000000000000000000000000000081526004018080602001828103825260198152602001807f54686973206861736820616c7265616479206578697374732e0000000000000081525060200191505060405180910390fd5b610518610b2b565b6040518060c001604052808681526020018560ff1681526020018460ff168152602001600160003373ffffffffffffffffffffffffffffffffffffffff1673ffffffffffffffffffffffffffffffffffffffff168152602001908152602001600020600001548152602001428152602001600160ff16815250905080600160003373ffffffffffffffffffffffffffffffffffffffff1673ffffffffffffffffffffffffffffffffffffffff1681526020019081526020016000206001016000600160003373ffffffffffffffffffffffffffffffffffffffff1673ffffffffffffffffffffffffffffffffffffffff1681526020019081526020016000206000015481526020019081526020016000206000820151816000015560208201518160010160006101000a81548160ff021916908360ff16021790555060408201518160010160016101000a81548160ff021916908360ff160217905550606082015181600201556080820151816003015560a08201518160040160006101000a81548160ff021916908360ff16021790555090505080600260008781526020019081526020016000206000820151816000015560208201518160010160006101000a81548160ff021916908360ff16021790555060408201518160010160016101000a81548160ff021916908360ff160217905550606082015181600201556080820151816003015560a08201518160040160006101000a81548160ff021916908360ff160217905550905050843373ffffffffffffffffffffffffffffffffffffffff167ff3135cee9a8348cb67335083e67b165d116a230cdf79aa299de74ce34e988e208686600160003373ffffffffffffffffffffffffffffffffffffffff1673ffffffffffffffffffffffffffffffffffffffff16815260200190815260200160002060000154604051808460ff1660ff1681526020018360ff1660ff168152602001828152602001935050505060405180910390a3600160003373ffffffffffffffffffffffffffffffffffffffff1673ffffffffffffffffffffffffffffffffffffffff1681526020019081526020016000206000016000815480929190600101919050555050505b505050565b6000600160008373ffffffffffffffffffffffffffffffffffffffff1673ffffffffffffffffffffffffffffffffffffffff168152602001908152602001600020600001549050919050565b600080600080600060026000878152602001908152602001600020905080600001548160010160009054906101000a900460ff168260010160019054906101000a900460ff1683600301549450945094509450509193509193565b606080606080600080600160008a73ffffffffffffffffffffffffffffffffffffffff1673ffffffffffffffffffffffffffffffffffffffff168152602001908152602001600020905060008790508882600001540381111561095a578882600001540390505b60608160405190808252806020026020018201604052801561098b5781602001602082028038833980820191505090505b5090506060826040519080825280602002602001820160405280156109bf5781602001602082028038833980820191505090505b5090506060836040519080825280602002602001820160405280156109f35781602001602082028038833980820191505090505b509050606084604051908082528060200260200182016040528015610a275781602001602082028038833980820191505090505b50905060008090505b85811015610b05576000818f019050600088600101600083815260200190815260200160002090508060000154878381518110610a6957fe5b6020026020010181815250508060010160009054906101000a900460ff16868381518110610a9357fe5b602002602001019060ff16908160ff16815250508060010160019054906101000a900460ff16858381518110610ac557fe5b602002602001019060ff16908160ff16815250508060030154848381518110610aea57fe5b60200260200101818152505050508080600101915050610a30565b50848d019650838383838a9a509a509a509a509a50505050505050939792965093509350565b6040518060c0016040528060008019168152602001600060ff168152602001600060ff1681526020016000815260200160008152602001600060ff168152509056fea265627a7a72315820fb20b4618c9bad30931cb89a0d47480074eea642ffff77b87381c97893d30c7a64736f6c634300050c0032",
  "source": "pragma solidity ^0.5.0;\n\ncontract VerifyHash {\n    //\n    // State variables\n    //\n    bool private stopped = false;\n    address private owner;\n\n    struct Multihash {\n        bytes32 digest;\n        uint8 hashFunction;\n        uint8 size;\n        uint id;\n        uint256 creation_date;\n        uint8 flag;\n    }\n    struct User {\n        uint entryCount;\n        mapping (uint => Multihash) entries;\n    }\n    mapping (address => User) users;\n    mapping (bytes32 => Multihash) private hashes;\n\n    //\n    // Events - publicize actions to external listeners\n    //\n    event EntrySet (\n        address indexed key,\n        bytes32 indexed digest,\n        uint8 hashFunction,\n        uint8 size,\n        uint entryCount\n    );\n\n    modifier isAdmin() {if(msg.sender != owner) revert('You are not the contract owner'); _;}\n\n\n    modifier stopInEmergency {if (!stopped) _;}\n\n    //\n    // Functions\n    //\n    constructor() public {\n        owner = msg.sender;\n    }\n\n    function toggleContractActive() public isAdmin\n    {\n        stopped = !stopped;\n    }\n\n    function setEntry(bytes32 _digest, uint8 _hashFunction, uint8 _size)\n        public stopInEmergency\n        {\n            Multihash memory previousEntry = hashes[_digest];\n            require (previousEntry.flag != 1, \"This hash already exists.\");\n            Multihash memory entry = Multihash(_digest, _hashFunction, _size, users[msg.sender].entryCount, now, 1);\n            users[msg.sender].entries[users[msg.sender].entryCount] = entry;\n            hashes[_digest] = entry;\n            emit EntrySet(\n                msg.sender,\n                _digest,\n                _hashFunction,\n                _size,\n                users[msg.sender].entryCount\n            );\n            users[msg.sender].entryCount ++;\n        }\n\n    function getEntries(address _address, uint256 cursor, uint256 howMany)\n        public view returns (bytes32[] memory, uint8[] memory, uint8[] memory, uint256[] memory, uint256 newCursor)\n        {\n            User storage user = users[_address];\n            uint256 length = howMany;\n            if (length > user.entryCount - cursor) {\n                length = user.entryCount - cursor;\n            }\n\n            bytes32[]    memory digest = new bytes32[](length);\n            uint8[]  memory hashFunction = new uint8[](length);\n            uint8[]    memory size = new uint8[](length);\n            uint256[] memory creation_date = new uint256[](length);\n            for (uint i = 0; i < length; i++) {\n                uint cursorInt = cursor + i;\n                Multihash storage multihash = user.entries[cursorInt];\n                digest[cursorInt] = multihash.digest;\n                hashFunction[cursorInt] = multihash.hashFunction;\n                size[cursorInt] = multihash.size;\n                creation_date[cursorInt] = multihash.creation_date;\n            }\n            newCursor = cursor + length;\n            return (digest, hashFunction, size, creation_date, newCursor);\n        }\n\n    function getEntriesLength(address _address)\n        public view returns (uint256 length)\n        {\n            return (users[_address].entryCount);\n        }\n\n    function getEntry(bytes32 _digest)\n        public view\n        returns(bytes32 digest, uint8 hashfunction, uint8 size, uint256 creation_date)\n        {\n            Multihash storage entry = hashes[_digest];\n            return (\n                entry.digest, entry.hashFunction, entry.size, entry.creation_date\n            );\n        }\n}\n",
  "sourcePath": "/Users/jessewicks/Projects/VerifyHash/contracts/VerifyHash.sol",
  "compiler": {
    "name": "solc",
    "version": "0.5.12+commit.7709ece9.Emscripten.clang"
  },
  "schemaVersion": "3.0.20",
  "updatedAt": "2020-01-30T02:11:37.127Z",
  "networkType": "ethereum",
  "devdoc": {
    "methods": {}
  },
  "userdoc": {
    "methods": {}
  }
}