{
  "contractName": "LibraryDemo",
  "abi": [
    {
      "constant": true,
      "inputs": [
        {
          "internalType": "bytes",
          "name": "_title",
          "type": "bytes"
        },
        {
          "internalType": "bytes",
          "name": "_fName",
          "type": "bytes"
        },
        {
          "internalType": "bytes",
          "name": "_lName",
          "type": "bytes"
        }
      ],
      "name": "getFullName",
      "outputs": [
        {
          "internalType": "bytes",
          "name": "",
          "type": "bytes"
        }
      ],
      "payable": false,
      "stateMutability": "pure",
      "type": "function"
    },
    {
      "constant": true,
      "inputs": [
        {
          "internalType": "bytes",
          "name": "_fullName",
          "type": "bytes"
        }
      ],
      "name": "getTitle",
      "outputs": [
        {
          "internalType": "bytes",
          "name": "",
          "type": "bytes"
        }
      ],
      "payable": false,
      "stateMutability": "pure",
      "type": "function"
    }
  ],
  "bytecode": "0x608060405234801561001057600080fd5b50610604806100206000396000f3fe608060405234801561001057600080fd5b50600436106100365760003560e01c80630f227a511461003b578063f6eb2c381461029d575b600080fd5b6102226004803603606081101561005157600080fd5b810190808035906020019064010000000081111561006e57600080fd5b82018360208201111561008057600080fd5b803590602001918460018302840111640100000000831117156100a257600080fd5b91908080601f016020809104026020016040519081016040528093929190818152602001838380828437600081840152601f19601f8201169050808301925050505050505091929192908035906020019064010000000081111561010557600080fd5b82018360208201111561011757600080fd5b8035906020019184600183028401116401000000008311171561013957600080fd5b91908080601f016020809104026020016040519081016040528093929190818152602001838380828437600081840152601f19601f8201169050808301925050505050505091929192908035906020019064010000000081111561019c57600080fd5b8201836020820111156101ae57600080fd5b803590602001918460018302840111640100000000831117156101d057600080fd5b91908080601f016020809104026020016040519081016040528093929190818152602001838380828437600081840152601f19601f8201169050808301925050505050505091929192905050506103d1565b6040518080602001828103825283818151815260200191508051906020019080838360005b83811015610262578082015181840152602081019050610247565b50505050905090810190601f16801561028f5780820380516001836020036101000a031916815260200191505b509250505060405180910390f35b610356600480360360208110156102b357600080fd5b81019080803590602001906401000000008111156102d057600080fd5b8201836020820111156102e257600080fd5b8035906020019184600183028401116401000000008311171561030457600080fd5b91908080601f016020809104026020016040519081016040528093929190818152602001838380828437600081840152601f19601f820116905080830192505050505050509192919290505050610494565b6040518080602001828103825283818151815260200191508051906020019080838360005b8381101561039657808201518184015260208101905061037b565b50505050905090810190601f1680156103c35780820380516001836020036101000a031916815260200191505b509250505060405180910390f35b606080610487836104796040518060400160405280600181526020017f200000000000000000000000000000000000000000000000000000000000000081525061046b8861045d6040518060400160405280600181526020017f20000000000000000000000000000000000000000000000000000000000000008152508c6104b990919063ffffffff16565b6104b990919063ffffffff16565b6104b990919063ffffffff16565b6104b990919063ffffffff16565b9050809150509392505050565b6060806104ae60006003856105439092919063ffffffff16565b905080915050919050565b6060806040519050835180825260208201818101602087015b818310156104ef57805183526020830192506020810190506104d2565b50855192508351830184528091508282019050602086015b818310156105245780518352602083019250602081019050610507565b50601f19601f8851850115830101166040525050508091505092915050565b60608183018451101561055557600080fd5b6060821560008114610572576040519150602082016040526105c3565b6040519150601f8416801560200281840101858101878315602002848b0101015b818310156105b05780518352602083019250602081019050610593565b50868552601f19601f8301166040525050505b5080915050939250505056fea265627a7a7231582012b7e4b05183e12ec07f37af0f6fd0ea8cd540164ae8795247378da30b87106e64736f6c634300050c0032",
  "source": "pragma solidity ^0.5.0;\n\nimport \"bytes/BytesLib.sol\";\n\n/// @title Contract for LibraryDemo\n/// @notice Demonstrates usage of a package from  ethPM registry\n\ncontract LibraryDemo {\n\tusing BytesLib for bytes;\n\tfunction getFullName(bytes memory _title, bytes memory _fName, bytes memory _lName)\n  \tpublic pure returns (bytes memory)\n\t{\n\t\tbytes memory fullName = _title.concat(\" \").concat(_fName).concat(\" \").concat(_lName);\n\t\treturn fullName;\n\t}\n\tfunction getTitle(bytes memory _fullName)\n  \tpublic pure returns (bytes memory)\n\t{\n\t\tbytes memory lastName = _fullName.slice(0, 3);\n\t\treturn lastName;\n\t}\n}",
  "sourcePath": "/Users/jessewicks/Projects/VerifyHash/contracts/LibraryDemo.sol",
  "compiler": {
    "name": "solc",
    "version": "0.5.12+commit.7709ece9.Emscripten.clang"
  },
  "schemaVersion": "3.0.20",
  "updatedAt": "2020-01-30T01:49:04.706Z",
  "devdoc": {
    "methods": {},
    "title": "Contract for LibraryDemo"
  },
  "userdoc": {
    "methods": {},
    "notice": "Demonstrates usage of a package from  ethPM registry"
  }
}