{
  "contractName": "VerifyHash",
  "abi": [
    {
      "inputs": [],
      "payable": false,
      "stateMutability": "nonpayable",
      "type": "constructor"
    },
    {
      "anonymous": false,
      "inputs": [
        {
          "indexed": true,
          "internalType": "address",
          "name": "key",
          "type": "address"
        },
        {
          "indexed": true,
          "internalType": "bytes32",
          "name": "digest",
          "type": "bytes32"
        },
        {
          "indexed": false,
          "internalType": "bytes",
          "name": "hashFunction",
          "type": "bytes"
        },
        {
          "indexed": false,
          "internalType": "uint8",
          "name": "size",
          "type": "uint8"
        }
      ],
      "name": "EntrySet",
      "type": "event"
    },
    {
      "constant": true,
      "inputs": [],
      "name": "owner",
      "outputs": [
        {
          "internalType": "address",
          "name": "",
          "type": "address"
        }
      ],
      "payable": false,
      "stateMutability": "view",
      "type": "function"
    },
    {
      "constant": false,
      "inputs": [
        {
          "internalType": "bytes32",
          "name": "_digest",
          "type": "bytes32"
        },
        {
          "internalType": "bytes",
          "name": "_hashFunction",
          "type": "bytes"
        },
        {
          "internalType": "uint8",
          "name": "_size",
          "type": "uint8"
        }
      ],
      "name": "setEntry",
      "outputs": [],
      "payable": false,
      "stateMutability": "nonpayable",
      "type": "function"
    },
    {
      "constant": true,
      "inputs": [
        {
          "internalType": "address",
          "name": "_address",
          "type": "address"
        }
      ],
      "name": "getEntries",
      "outputs": [
        {
          "internalType": "bytes32[]",
          "name": "",
          "type": "bytes32[]"
        },
        {
          "internalType": "bytes[]",
          "name": "",
          "type": "bytes[]"
        },
        {
          "internalType": "uint8[]",
          "name": "",
          "type": "uint8[]"
        }
      ],
      "payable": false,
      "stateMutability": "view",
      "type": "function"
    },
    {
      "constant": true,
      "inputs": [
        {
          "internalType": "bytes32",
          "name": "_digest",
          "type": "bytes32"
        }
      ],
      "name": "getEntry",
      "outputs": [
        {
          "internalType": "bytes32",
          "name": "digest",
          "type": "bytes32"
        },
        {
          "internalType": "bytes",
          "name": "hashfunction",
          "type": "bytes"
        },
        {
          "internalType": "uint8",
          "name": "size",
          "type": "uint8"
        }
      ],
      "payable": false,
      "stateMutability": "view",
      "type": "function"
    }
  ],
  "bytecode": "0x608060405234801561001057600080fd5b5033600260006101000a81548173ffffffffffffffffffffffffffffffffffffffff021916908373ffffffffffffffffffffffffffffffffffffffff160217905550610dc1806100616000396000f3fe608060405234801561001057600080fd5b506004361061004c5760003560e01c8063141b5392146100515780635608b2e11461006d5780638da5cb5b1461009f5780639a5e4eb4146100bd575b600080fd5b61006b600480360361006691908101906107f3565b6100ef565b005b610087600480360361008291908101906107a1565b6102ef565b60405161009693929190610aa7565b60405180910390f35b6100a7610534565b6040516100b49190610a8c565b60405180910390f35b6100d760048036036100d291908101906107ca565b61055a565b6040516100e693929190610af3565b60405180910390f35b6100f761063b565b60405180608001604052808581526020018481526020018360ff1681526020016000803373ffffffffffffffffffffffffffffffffffffffff1673ffffffffffffffffffffffffffffffffffffffff168152602001908152602001600020600001548152509050806000803373ffffffffffffffffffffffffffffffffffffffff1673ffffffffffffffffffffffffffffffffffffffff16815260200190815260200160002060010160008060003373ffffffffffffffffffffffffffffffffffffffff1673ffffffffffffffffffffffffffffffffffffffff168152602001908152602001600020600001548152602001908152602001600020600082015181600001556020820151816001019080519060200190610218929190610669565b5060408201518160020160006101000a81548160ff021916908360ff160217905550606082015181600301559050506000803373ffffffffffffffffffffffffffffffffffffffff1673ffffffffffffffffffffffffffffffffffffffff16815260200190815260200160002060000160008154809291906001019190505550833373ffffffffffffffffffffffffffffffffffffffff167fc3d5eaa4cee33a8b714ececcb431356a0243439afe3cacb9fa6d1c6b38f459de85856040516102e1929190610b31565b60405180910390a350505050565b606080606060008060008673ffffffffffffffffffffffffffffffffffffffff1673ffffffffffffffffffffffffffffffffffffffff16815260200190815260200160002090506060816000015460405190808252806020026020018201604052801561036b5781602001602082028038833980820191505090505b509050606082600001546040519080825280602002602001820160405280156103a857816020015b60608152602001906001900390816103935790505b509050606083600001546040519080825280602002602001820160405280156103e05781602001602082028038833980820191505090505b50905060008090505b846000015481101561051f5760008560010160008381526020019081526020016000209050806000015485838151811061041f57fe5b602002602001018181525050806001018054600181600116156101000203166002900480601f0160208091040260200160405190810160405280929190818152602001828054600181600116156101000203166002900480156104c35780601f10610498576101008083540402835291602001916104c3565b820191906000526020600020905b8154815290600101906020018083116104a657829003601f168201915b50505050508483815181106104d457fe5b60200260200101819052508060020160009054906101000a900460ff168383815181106104fd57fe5b602002602001019060ff16908160ff16815250505080806001019150506103e9565b50828282965096509650505050509193909250565b600260009054906101000a900473ffffffffffffffffffffffffffffffffffffffff1681565b600060606000806001600086815260200190815260200160002090508060000154816001018260020160009054906101000a900460ff16818054600181600116156101000203166002900480601f0160208091040260200160405190810160405280929190818152602001828054600181600116156101000203166002900480156106265780601f106105fb57610100808354040283529160200191610626565b820191906000526020600020905b81548152906001019060200180831161060957829003601f168201915b50505050509150935093509350509193909250565b60405180608001604052806000801916815260200160608152602001600060ff168152602001600081525090565b828054600181600116156101000203166002900490600052602060002090601f016020900481019282601f106106aa57805160ff19168380011785556106d8565b828001600101855582156106d8579182015b828111156106d75782518255916020019190600101906106bc565b5b5090506106e591906106e9565b5090565b61070b91905b808211156107075760008160009055506001016106ef565b5090565b90565b60008135905061071d81610d39565b92915050565b60008135905061073281610d50565b92915050565b600082601f83011261074957600080fd5b813561075c61075782610b8e565b610b61565b9150808252602083016020830185838301111561077857600080fd5b610783838284610ce6565b50505092915050565b60008135905061079b81610d67565b92915050565b6000602082840312156107b357600080fd5b60006107c18482850161070e565b91505092915050565b6000602082840312156107dc57600080fd5b60006107ea84828501610723565b91505092915050565b60008060006060848603121561080857600080fd5b600061081686828701610723565b935050602084013567ffffffffffffffff81111561083357600080fd5b61083f86828701610738565b92505060406108508682870161078c565b9150509250925092565b600061086683836109de565b60208301905092915050565b600061087e8383610a35565b905092915050565b60006108928383610a6e565b60208301905092915050565b6108a781610c9d565b82525050565b60006108b882610bea565b6108c28185610c48565b93506108cd83610bba565b8060005b838110156108fe5781516108e5888261085a565b97506108f083610c21565b9250506001810190506108d1565b5085935050505092915050565b600061091682610bf5565b6109208185610c59565b93508360208202850161093285610bca565b8060005b8581101561096e578484038952815161094f8582610872565b945061095a83610c2e565b925060208a01995050600181019050610936565b50829750879550505050505092915050565b600061098b82610c00565b6109958185610c6a565b93506109a083610bda565b8060005b838110156109d15781516109b88882610886565b97506109c383610c3b565b9250506001810190506109a4565b5085935050505092915050565b6109e781610caf565b82525050565b6109f681610caf565b82525050565b6000610a0782610c16565b610a118185610c8c565b9350610a21818560208601610cf5565b610a2a81610d28565b840191505092915050565b6000610a4082610c0b565b610a4a8185610c7b565b9350610a5a818560208601610cf5565b610a6381610d28565b840191505092915050565b610a7781610cd9565b82525050565b610a8681610cd9565b82525050565b6000602082019050610aa1600083018461089e565b92915050565b60006060820190508181036000830152610ac181866108ad565b90508181036020830152610ad5818561090b565b90508181036040830152610ae98184610980565b9050949350505050565b6000606082019050610b0860008301866109ed565b8181036020830152610b1a81856109fc565b9050610b296040830184610a7d565b949350505050565b60006040820190508181036000830152610b4b81856109fc565b9050610b5a6020830184610a7d565b9392505050565b6000604051905081810181811067ffffffffffffffff82111715610b8457600080fd5b8060405250919050565b600067ffffffffffffffff821115610ba557600080fd5b601f19601f8301169050602081019050919050565b6000819050602082019050919050565b6000819050602082019050919050565b6000819050602082019050919050565b600081519050919050565b600081519050919050565b600081519050919050565b600081519050919050565b600081519050919050565b6000602082019050919050565b6000602082019050919050565b6000602082019050919050565b600082825260208201905092915050565b600082825260208201905092915050565b600082825260208201905092915050565b600082825260208201905092915050565b600082825260208201905092915050565b6000610ca882610cb9565b9050919050565b6000819050919050565b600073ffffffffffffffffffffffffffffffffffffffff82169050919050565b600060ff82169050919050565b82818337600083830152505050565b60005b83811015610d13578082015181840152602081019050610cf8565b83811115610d22576000848401525b50505050565b6000601f19601f8301169050919050565b610d4281610c9d565b8114610d4d57600080fd5b50565b610d5981610caf565b8114610d6457600080fd5b50565b610d7081610cd9565b8114610d7b57600080fd5b5056fea365627a7a72315820dc5a5bc98cea9aa67437d8f95fba0937bfdebb8c1ac6f06a4a74d2c92239e2e06c6578706572696d656e74616cf564736f6c634300050c0040",
  "source": "pragma solidity ^0.5.0;\npragma experimental ABIEncoderV2;\n\ncontract VerifyHash {\n    //\n    // State variables\n    //\n\n    struct Multihash {\n        bytes32 digest;\n        bytes hashFunction;\n        uint8 size;\n        uint id;\n    }\n\n    struct User {\n        uint entryCount;\n        mapping (uint => Multihash) entries;\n    }\n\n    mapping (address => User) users;\n    mapping (bytes32 => Multihash) private hashes;\n\n    address public owner;\n\n    //\n    // Events - publicize actions to external listeners\n    //\n\n    event EntrySet (\n        address indexed key,\n        bytes32 indexed digest,\n        bytes hashFunction,\n        uint8 size\n    );\n    //\n    // Functions\n    //\n\n    /* Use the appropriate global variable to get the sender of the transaction */\n    constructor() public {\n        /* Set the owner to the creator of this contract */\n        owner = msg.sender;\n    }\n\n    function setEntry(bytes32 _digest, bytes memory _hashFunction, uint8 _size)\n        public\n        {\n            Multihash memory entry = Multihash(_digest, _hashFunction, _size, users[msg.sender].entryCount);\n            users[msg.sender].entries[users[msg.sender].entryCount] = entry;\n            users[msg.sender].entryCount ++;\n            emit EntrySet(\n                msg.sender,\n                _digest,\n                _hashFunction,\n                _size\n            );\n        }\n\n    function getEntries(address _address) public view returns (bytes32[] memory, bytes[] memory, uint8[] memory){\n        User storage user = users[_address];\n        bytes32[]    memory digest = new bytes32[](user.entryCount);\n        bytes[]  memory hashFunction = new bytes[](user.entryCount);\n        uint8[]    memory size = new uint8[](user.entryCount);\n        for (uint i = 0; i < user.entryCount; i++) {\n            Multihash storage multihash = user.entries[i];\n            digest[i] = multihash.digest;\n            hashFunction[i] = multihash.hashFunction;\n            size[i] = multihash.size;\n        }\n\n        return (digest, hashFunction, size);\n\n    }\n\n    function getEntry(bytes32 _digest)\n        public view\n        returns(bytes32 digest, bytes memory hashfunction, uint8 size)\n        {\n            Multihash storage entry = hashes[_digest];\n            return (\n                entry.digest, entry.hashFunction, entry.size\n            );\n        }\n}\n",
  "sourcePath": "/Users/jessewicks/Projects/verify-hash/contracts/VerifyHash.sol",
  "compiler": {
    "name": "solc",
    "version": "0.5.12+commit.7709ece9.Emscripten.clang"
  },
  "schemaVersion": "3.0.20",
  "updatedAt": "2020-01-20T22:30:15.971Z",
  "devdoc": {
    "methods": {}
  },
  "userdoc": {
    "methods": {}
  }
}