{
  "contractName": "VerifyHash",
  "abi": [
    {
      "inputs": [],
      "payable": false,
      "stateMutability": "nonpayable",
      "type": "constructor"
    },
    {
      "anonymous": false,
      "inputs": [
        {
          "indexed": true,
          "internalType": "address",
          "name": "key",
          "type": "address"
        },
        {
          "indexed": true,
          "internalType": "bytes32",
          "name": "digest",
          "type": "bytes32"
        },
        {
          "indexed": false,
          "internalType": "uint8",
          "name": "hashFunction",
          "type": "uint8"
        },
        {
          "indexed": false,
          "internalType": "uint8",
          "name": "size",
          "type": "uint8"
        },
        {
          "indexed": false,
          "internalType": "uint256",
          "name": "entryCount",
          "type": "uint256"
        }
      ],
      "name": "EntrySet",
      "type": "event"
    },
    {
      "constant": true,
      "inputs": [],
      "name": "owner",
      "outputs": [
        {
          "internalType": "address",
          "name": "",
          "type": "address"
        }
      ],
      "payable": false,
      "stateMutability": "view",
      "type": "function"
    },
    {
      "constant": false,
      "inputs": [
        {
          "internalType": "bytes32",
          "name": "_digest",
          "type": "bytes32"
        },
        {
          "internalType": "uint8",
          "name": "_hashFunction",
          "type": "uint8"
        },
        {
          "internalType": "uint8",
          "name": "_size",
          "type": "uint8"
        }
      ],
      "name": "setEntry",
      "outputs": [],
      "payable": false,
      "stateMutability": "nonpayable",
      "type": "function"
    },
    {
      "constant": true,
      "inputs": [
        {
          "internalType": "address",
          "name": "_address",
          "type": "address"
        }
      ],
      "name": "getEntries",
      "outputs": [
        {
          "internalType": "bytes32[]",
          "name": "",
          "type": "bytes32[]"
        },
        {
          "internalType": "uint8[]",
          "name": "",
          "type": "uint8[]"
        },
        {
          "internalType": "uint8[]",
          "name": "",
          "type": "uint8[]"
        }
      ],
      "payable": false,
      "stateMutability": "view",
      "type": "function"
    },
    {
      "constant": true,
      "inputs": [
        {
          "internalType": "bytes32",
          "name": "_digest",
          "type": "bytes32"
        }
      ],
      "name": "getEntry",
      "outputs": [
        {
          "internalType": "bytes32",
          "name": "digest",
          "type": "bytes32"
        },
        {
          "internalType": "uint8",
          "name": "hashfunction",
          "type": "uint8"
        },
        {
          "internalType": "uint8",
          "name": "size",
          "type": "uint8"
        }
      ],
      "payable": false,
      "stateMutability": "view",
      "type": "function"
    }
  ],
  "bytecode": "0x608060405234801561001057600080fd5b5033600260006101000a81548173ffffffffffffffffffffffffffffffffffffffff021916908373ffffffffffffffffffffffffffffffffffffffff1602179055506107d3806100616000396000f3fe608060405234801561001057600080fd5b506004361061004c5760003560e01c80634aa31d1a146100515780635608b2e1146100995780638da5cb5b146101c25780639a5e4eb41461020c575b600080fd5b6100976004803603606081101561006757600080fd5b8101908080359060200190929190803560ff169060200190929190803560ff169060200190929190505050610268565b005b6100db600480360360208110156100af57600080fd5b81019080803573ffffffffffffffffffffffffffffffffffffffff169060200190929190505050610537565b60405180806020018060200180602001848103845287818151815260200191508051906020019060200280838360005b8381101561012657808201518184015260208101905061010b565b50505050905001848103835286818151815260200191508051906020019060200280838360005b8381101561016857808201518184015260208101905061014d565b50505050905001848103825285818151815260200191508051906020019060200280838360005b838110156101aa57808201518184015260208101905061018f565b50505050905001965050505050505060405180910390f35b6101ca6106f5565b604051808273ffffffffffffffffffffffffffffffffffffffff1673ffffffffffffffffffffffffffffffffffffffff16815260200191505060405180910390f35b6102386004803603602081101561022257600080fd5b810190808035906020019092919050505061071b565b604051808481526020018360ff1660ff1681526020018260ff1660ff168152602001935050505060405180910390f35b61027061076d565b60405180608001604052808581526020018460ff1681526020018360ff1681526020016000803373ffffffffffffffffffffffffffffffffffffffff1673ffffffffffffffffffffffffffffffffffffffff168152602001908152602001600020600001548152509050806000803373ffffffffffffffffffffffffffffffffffffffff1673ffffffffffffffffffffffffffffffffffffffff16815260200190815260200160002060010160008060003373ffffffffffffffffffffffffffffffffffffffff1673ffffffffffffffffffffffffffffffffffffffff1681526020019081526020016000206000015481526020019081526020016000206000820151816000015560208201518160010160006101000a81548160ff021916908360ff16021790555060408201518160010160016101000a81548160ff021916908360ff1602179055506060820151816002015590505080600160008681526020019081526020016000206000820151816000015560208201518160010160006101000a81548160ff021916908360ff16021790555060408201518160010160016101000a81548160ff021916908360ff16021790555060608201518160020155905050833373ffffffffffffffffffffffffffffffffffffffff167ff3135cee9a8348cb67335083e67b165d116a230cdf79aa299de74ce34e988e2085856000803373ffffffffffffffffffffffffffffffffffffffff1673ffffffffffffffffffffffffffffffffffffffff16815260200190815260200160002060000154604051808460ff1660ff1681526020018360ff1660ff168152602001828152602001935050505060405180910390a36000803373ffffffffffffffffffffffffffffffffffffffff1673ffffffffffffffffffffffffffffffffffffffff1681526020019081526020016000206000016000815480929190600101919050555050505050565b606080606060008060008673ffffffffffffffffffffffffffffffffffffffff1673ffffffffffffffffffffffffffffffffffffffff1681526020019081526020016000209050606081600001546040519080825280602002602001820160405280156105b35781602001602082028038833980820191505090505b509050606082600001546040519080825280602002602001820160405280156105eb5781602001602082028038833980820191505090505b509050606083600001546040519080825280602002602001820160405280156106235781602001602082028038833980820191505090505b50905060008090505b84600001548110156106e05760008560010160008381526020019081526020016000209050806000015485838151811061066257fe5b6020026020010181815250508060010160009054906101000a900460ff1684838151811061068c57fe5b602002602001019060ff16908160ff16815250508060010160019054906101000a900460ff168383815181106106be57fe5b602002602001019060ff16908160ff168152505050808060010191505061062c565b50828282965096509650505050509193909250565b600260009054906101000a900473ffffffffffffffffffffffffffffffffffffffff1681565b60008060008060016000868152602001908152602001600020905080600001548160010160009054906101000a900460ff168260010160019054906101000a900460ff16935093509350509193909250565b604051806080016040528060008019168152602001600060ff168152602001600060ff16815260200160008152509056fea265627a7a723158208eb5da0a3597cd38de5676b4840823241420cad22a0b662b0437231e35aec45b64736f6c634300050c0032",
  "source": "pragma solidity ^0.5.0;\n\ncontract VerifyHash {\n    //\n    // State variables\n    //\n    struct Multihash {\n        bytes32 digest;\n        uint8 hashFunction;\n        uint8 size;\n        uint id;\n    }\n    struct User {\n        uint entryCount;\n        mapping (uint => Multihash) entries;\n    }\n    mapping (address => User) users;\n    mapping (bytes32 => Multihash) private hashes;\n    address public owner;\n\n    //\n    // Events - publicize actions to external listeners\n    //\n    event EntrySet (\n        address indexed key,\n        bytes32 indexed digest,\n        uint8 hashFunction,\n        uint8 size,\n        uint entryCount\n    );\n\n    //\n    // Functions\n    //\n    constructor() public {\n        owner = msg.sender;\n    }\n\n    function setEntry(bytes32 _digest, uint8 _hashFunction, uint8 _size)\n        public\n        {\n            Multihash memory entry = Multihash(_digest, _hashFunction, _size, users[msg.sender].entryCount);\n            users[msg.sender].entries[users[msg.sender].entryCount] = entry;\n            hashes[_digest] = entry;\n            emit EntrySet(\n                msg.sender,\n                _digest,\n                _hashFunction,\n                _size,\n                users[msg.sender].entryCount\n            );\n            users[msg.sender].entryCount ++;\n        }\n\n    function getEntries(address _address)\n        public view returns (bytes32[] memory, uint8[] memory, uint8[] memory)\n        {\n            User storage user = users[_address];\n            bytes32[]    memory digest = new bytes32[](user.entryCount);\n            uint8[]  memory hashFunction = new uint8[](user.entryCount);\n            uint8[]    memory size = new uint8[](user.entryCount);\n            for (uint i = 0; i < user.entryCount; i++) {\n                Multihash storage multihash = user.entries[i];\n                digest[i] = multihash.digest;\n                hashFunction[i] = multihash.hashFunction;\n                size[i] = multihash.size;\n            }\n\n            return (digest, hashFunction, size);\n        }\n\n    function getEntry(bytes32 _digest)\n        public view\n        returns(bytes32 digest, uint8 hashfunction, uint8 size)\n        {\n            Multihash storage entry = hashes[_digest];\n            return (\n                entry.digest, entry.hashFunction, entry.size\n            );\n        }\n}\n",
  "sourcePath": "/Users/jessewicks/Projects/verify-hash/contracts/VerifyHash.sol",
  "compiler": {
    "name": "solc",
    "version": "0.5.12+commit.7709ece9.Emscripten.clang"
  },
  "schemaVersion": "3.0.20",
  "updatedAt": "2020-01-25T09:00:26.886Z",
  "networkType": "ethereum",
  "devdoc": {
    "methods": {}
  },
  "userdoc": {
    "methods": {}
  }
}