{
  "contractName": "VerifyHash",
  "abi": [
    {
      "inputs": [],
      "payable": false,
      "stateMutability": "nonpayable",
      "type": "constructor"
    },
    {
      "anonymous": false,
      "inputs": [
        {
          "indexed": true,
          "internalType": "address",
          "name": "key",
          "type": "address"
        },
        {
          "indexed": true,
          "internalType": "bytes32",
          "name": "digest",
          "type": "bytes32"
        },
        {
          "indexed": false,
          "internalType": "uint8",
          "name": "hashFunction",
          "type": "uint8"
        },
        {
          "indexed": false,
          "internalType": "uint8",
          "name": "size",
          "type": "uint8"
        },
        {
          "indexed": false,
          "internalType": "uint256",
          "name": "entryCount",
          "type": "uint256"
        }
      ],
      "name": "EntrySet",
      "type": "event"
    },
    {
      "constant": false,
      "inputs": [],
      "name": "toggleContractActive",
      "outputs": [],
      "payable": false,
      "stateMutability": "nonpayable",
      "type": "function"
    },
    {
      "constant": false,
      "inputs": [
        {
          "internalType": "bytes32",
          "name": "_digest",
          "type": "bytes32"
        },
        {
          "internalType": "uint8",
          "name": "_hashFunction",
          "type": "uint8"
        },
        {
          "internalType": "uint8",
          "name": "_size",
          "type": "uint8"
        }
      ],
      "name": "setEntry",
      "outputs": [],
      "payable": false,
      "stateMutability": "nonpayable",
      "type": "function"
    },
    {
      "constant": true,
      "inputs": [
        {
          "internalType": "address",
          "name": "_address",
          "type": "address"
        }
      ],
      "name": "getEntries",
      "outputs": [
        {
          "internalType": "bytes32[]",
          "name": "",
          "type": "bytes32[]"
        },
        {
          "internalType": "uint8[]",
          "name": "",
          "type": "uint8[]"
        },
        {
          "internalType": "uint8[]",
          "name": "",
          "type": "uint8[]"
        },
        {
          "internalType": "uint256[]",
          "name": "",
          "type": "uint256[]"
        }
      ],
      "payable": false,
      "stateMutability": "view",
      "type": "function"
    },
    {
      "constant": true,
      "inputs": [
        {
          "internalType": "bytes32",
          "name": "_digest",
          "type": "bytes32"
        }
      ],
      "name": "getEntry",
      "outputs": [
        {
          "internalType": "bytes32",
          "name": "digest",
          "type": "bytes32"
        },
        {
          "internalType": "uint8",
          "name": "hashfunction",
          "type": "uint8"
        },
        {
          "internalType": "uint8",
          "name": "size",
          "type": "uint8"
        },
        {
          "internalType": "uint256",
          "name": "creation_date",
          "type": "uint256"
        }
      ],
      "payable": false,
      "stateMutability": "view",
      "type": "function"
    }
  ],
  "bytecode": "0x608060405260008060006101000a81548160ff02191690831515021790555034801561002a57600080fd5b5033600060016101000a81548173ffffffffffffffffffffffffffffffffffffffff021916908373ffffffffffffffffffffffffffffffffffffffff1602179055506109478061007b6000396000f3fe608060405234801561001057600080fd5b506004361061004c5760003560e01c80631385d24c146100515780634aa31d1a1461005b5780635608b2e1146100a35780639a5e4eb414610214575b600080fd5b610059610277565b005b6100a16004803603606081101561007157600080fd5b8101908080359060200190929190803560ff169060200190929190803560ff169060200190929190505050610364565b005b6100e5600480360360208110156100b957600080fd5b81019080803573ffffffffffffffffffffffffffffffffffffffff169060200190929190505050610666565b6040518080602001806020018060200180602001858103855289818151815260200191508051906020019060200280838360005b83811015610134578082015181840152602081019050610119565b50505050905001858103845288818151815260200191508051906020019060200280838360005b8381101561017657808201518184015260208101905061015b565b50505050905001858103835287818151815260200191508051906020019060200280838360005b838110156101b857808201518184015260208101905061019d565b50505050905001858103825286818151815260200191508051906020019060200280838360005b838110156101fa5780820151818401526020810190506101df565b505050509050019850505050505050505060405180910390f35b6102406004803603602081101561022a57600080fd5b810190808035906020019092919050505061087f565b604051808581526020018460ff1660ff1681526020018360ff1660ff16815260200182815260200194505050505060405180910390f35b600060019054906101000a900473ffffffffffffffffffffffffffffffffffffffff1673ffffffffffffffffffffffffffffffffffffffff163373ffffffffffffffffffffffffffffffffffffffff161461033a576040517f08c379a000000000000000000000000000000000000000000000000000000000815260040180806020018281038252601e8152602001807f596f7520617265206e6f742074686520636f6e7472616374206f776e6572000081525060200191505060405180910390fd5b6000809054906101000a900460ff16156000806101000a81548160ff021916908315150217905550565b6000809054906101000a900460ff166106615761037f6108da565b6040518060a001604052808581526020018460ff1681526020018360ff168152602001600160003373ffffffffffffffffffffffffffffffffffffffff1673ffffffffffffffffffffffffffffffffffffffff16815260200190815260200160002060000154815260200142815250905080600160003373ffffffffffffffffffffffffffffffffffffffff1673ffffffffffffffffffffffffffffffffffffffff1681526020019081526020016000206001016000600160003373ffffffffffffffffffffffffffffffffffffffff1673ffffffffffffffffffffffffffffffffffffffff1681526020019081526020016000206000015481526020019081526020016000206000820151816000015560208201518160010160006101000a81548160ff021916908360ff16021790555060408201518160010160016101000a81548160ff021916908360ff160217905550606082015181600201556080820151816003015590505080600260008681526020019081526020016000206000820151816000015560208201518160010160006101000a81548160ff021916908360ff16021790555060408201518160010160016101000a81548160ff021916908360ff1602179055506060820151816002015560808201518160030155905050833373ffffffffffffffffffffffffffffffffffffffff167ff3135cee9a8348cb67335083e67b165d116a230cdf79aa299de74ce34e988e208585600160003373ffffffffffffffffffffffffffffffffffffffff1673ffffffffffffffffffffffffffffffffffffffff16815260200190815260200160002060000154604051808460ff1660ff1681526020018360ff1660ff168152602001828152602001935050505060405180910390a3600160003373ffffffffffffffffffffffffffffffffffffffff1673ffffffffffffffffffffffffffffffffffffffff16815260200190815260200160002060000160008154809291906001019190505550505b505050565b6060806060806000600160008773ffffffffffffffffffffffffffffffffffffffff1673ffffffffffffffffffffffffffffffffffffffff1681526020019081526020016000209050606081600001546040519080825280602002602001820160405280156106e45781602001602082028038833980820191505090505b5090506060826000015460405190808252806020026020018201604052801561071c5781602001602082028038833980820191505090505b509050606083600001546040519080825280602002602001820160405280156107545781602001602082028038833980820191505090505b5090506060846000015460405190808252806020026020018201604052801561078c5781602001602082028038833980820191505090505b50905060008090505b8560000154811015610866576000866001016000838152602001908152602001600020905080600001548683815181106107cb57fe5b6020026020010181815250508060010160009054906101000a900460ff168583815181106107f557fe5b602002602001019060ff16908160ff16815250508060010160019054906101000a900460ff1684838151811061082757fe5b602002602001019060ff16908160ff1681525050806003015483838151811061084c57fe5b602002602001018181525050508080600101915050610795565b5083838383985098509850985050505050509193509193565b600080600080600060026000878152602001908152602001600020905080600001548160010160009054906101000a900460ff168260010160019054906101000a900460ff1683600301549450945094509450509193509193565b6040518060a0016040528060008019168152602001600060ff168152602001600060ff1681526020016000815260200160008152509056fea265627a7a72315820b77aab6997decc9201a186df4892c22a2da5c1f704e749d4edd1afffe77c4d4e64736f6c634300050c0032",
  "source": "pragma solidity ^0.5.0;\n\ncontract VerifyHash {\n    //\n    // State variables\n    //\n    bool private stopped = false;\n    address private owner;\n\n    struct Multihash {\n        bytes32 digest;\n        uint8 hashFunction;\n        uint8 size;\n        uint id;\n        uint256 creation_date;\n    }\n    struct User {\n        uint entryCount;\n        mapping (uint => Multihash) entries;\n    }\n    mapping (address => User) users;\n    mapping (bytes32 => Multihash) private hashes;\n\n    //\n    // Events - publicize actions to external listeners\n    //\n    event EntrySet (\n        address indexed key,\n        bytes32 indexed digest,\n        uint8 hashFunction,\n        uint8 size,\n        uint entryCount\n    );\n\n    modifier isAdmin() {if(msg.sender != owner) revert('You are not the contract owner'); _;}\n\n\n    modifier stopInEmergency {if (!stopped) _;}\n\n    //\n    // Functions\n    //\n    constructor() public {\n        owner = msg.sender;\n    }\n\n    function toggleContractActive() public isAdmin\n    {\n        stopped = !stopped;\n    }\n\n    function setEntry(bytes32 _digest, uint8 _hashFunction, uint8 _size)\n        public stopInEmergency\n        {\n            Multihash memory entry = Multihash(_digest, _hashFunction, _size, users[msg.sender].entryCount, now);\n            users[msg.sender].entries[users[msg.sender].entryCount] = entry;\n            hashes[_digest] = entry;\n            emit EntrySet(\n                msg.sender,\n                _digest,\n                _hashFunction,\n                _size,\n                users[msg.sender].entryCount\n            );\n            users[msg.sender].entryCount ++;\n        }\n\n    function getEntries(address _address)\n        public view returns (bytes32[] memory, uint8[] memory, uint8[] memory, uint256[] memory)\n        {\n            User storage user = users[_address];\n            bytes32[]    memory digest = new bytes32[](user.entryCount);\n            uint8[]  memory hashFunction = new uint8[](user.entryCount);\n            uint8[]    memory size = new uint8[](user.entryCount);\n            uint256[] memory creation_date = new uint256[](user.entryCount);\n            for (uint i = 0; i < user.entryCount; i++) {\n                Multihash storage multihash = user.entries[i];\n                digest[i] = multihash.digest;\n                hashFunction[i] = multihash.hashFunction;\n                size[i] = multihash.size;\n                creation_date[i] = multihash.creation_date;\n            }\n\n            return (digest, hashFunction, size, creation_date);\n        }\n\n    function getEntry(bytes32 _digest)\n        public view\n        returns(bytes32 digest, uint8 hashfunction, uint8 size, uint256 creation_date)\n        {\n            Multihash storage entry = hashes[_digest];\n            return (\n                entry.digest, entry.hashFunction, entry.size, entry.creation_date\n            );\n        }\n}\n",
  "sourcePath": "/Users/jessewicks/Projects/verify-hash/contracts/VerifyHash.sol",
  "compiler": {
    "name": "solc",
    "version": "0.5.12+commit.7709ece9.Emscripten.clang"
  },
  "schemaVersion": "3.0.20",
  "updatedAt": "2020-01-29T02:59:19.505Z",
  "networkType": "ethereum",
  "devdoc": {
    "methods": {}
  },
  "userdoc": {
    "methods": {}
  }
}